{
  "contractName": "CryptoKitties",
  "abi": [
    {
      "constant": true,
      "inputs": [],
      "name": "name",
      "outputs": [
        {
          "name": "",
          "type": "string"
        }
      ],
      "payable": false,
      "stateMutability": "view",
      "type": "function"
    },
    {
      "constant": true,
      "inputs": [
        {
          "name": "_tokenId",
          "type": "uint256"
        }
      ],
      "name": "getApproved",
      "outputs": [
        {
          "name": "",
          "type": "address"
        }
      ],
      "payable": false,
      "stateMutability": "view",
      "type": "function"
    },
    {
      "constant": false,
      "inputs": [
        {
          "name": "_to",
          "type": "address"
        },
        {
          "name": "_tokenId",
          "type": "uint256"
        }
      ],
      "name": "approve",
      "outputs": [],
      "payable": false,
      "stateMutability": "nonpayable",
      "type": "function"
    },
    {
      "constant": true,
      "inputs": [],
      "name": "totalSupply",
      "outputs": [
        {
          "name": "",
          "type": "uint256"
        }
      ],
      "payable": false,
      "stateMutability": "view",
      "type": "function"
    },
    {
      "constant": true,
      "inputs": [],
      "name": "genesCount",
      "outputs": [
        {
          "name": "",
          "type": "uint8"
        }
      ],
      "payable": false,
      "stateMutability": "view",
      "type": "function"
    },
    {
      "constant": true,
      "inputs": [
        {
          "name": "",
          "type": "uint256"
        }
      ],
      "name": "kittyIdToLot",
      "outputs": [
        {
          "name": "owner",
          "type": "address"
        },
        {
          "name": "price",
          "type": "uint256"
        }
      ],
      "payable": false,
      "stateMutability": "view",
      "type": "function"
    },
    {
      "constant": false,
      "inputs": [
        {
          "name": "_from",
          "type": "address"
        },
        {
          "name": "_to",
          "type": "address"
        },
        {
          "name": "_tokenId",
          "type": "uint256"
        }
      ],
      "name": "transferFrom",
      "outputs": [],
      "payable": false,
      "stateMutability": "nonpayable",
      "type": "function"
    },
    {
      "constant": true,
      "inputs": [
        {
          "name": "_owner",
          "type": "address"
        },
        {
          "name": "_index",
          "type": "uint256"
        }
      ],
      "name": "tokenOfOwnerByIndex",
      "outputs": [
        {
          "name": "",
          "type": "uint256"
        }
      ],
      "payable": false,
      "stateMutability": "view",
      "type": "function"
    },
    {
      "constant": false,
      "inputs": [
        {
          "name": "_from",
          "type": "address"
        },
        {
          "name": "_to",
          "type": "address"
        },
        {
          "name": "_tokenId",
          "type": "uint256"
        }
      ],
      "name": "safeTransferFrom",
      "outputs": [],
      "payable": false,
      "stateMutability": "nonpayable",
      "type": "function"
    },
    {
      "constant": true,
      "inputs": [
        {
          "name": "_tokenId",
          "type": "uint256"
        }
      ],
      "name": "exists",
      "outputs": [
        {
          "name": "",
          "type": "bool"
        }
      ],
      "payable": false,
      "stateMutability": "view",
      "type": "function"
    },
    {
      "constant": true,
      "inputs": [
        {
          "name": "_index",
          "type": "uint256"
        }
      ],
      "name": "tokenByIndex",
      "outputs": [
        {
          "name": "",
          "type": "uint256"
        }
      ],
      "payable": false,
      "stateMutability": "view",
      "type": "function"
    },
    {
      "constant": true,
      "inputs": [
        {
          "name": "_tokenId",
          "type": "uint256"
        }
      ],
      "name": "ownerOf",
      "outputs": [
        {
          "name": "",
          "type": "address"
        }
      ],
      "payable": false,
      "stateMutability": "view",
      "type": "function"
    },
    {
      "constant": true,
      "inputs": [
        {
          "name": "_owner",
          "type": "address"
        }
      ],
      "name": "balanceOf",
      "outputs": [
        {
          "name": "",
          "type": "uint256"
        }
      ],
      "payable": false,
      "stateMutability": "view",
      "type": "function"
    },
    {
      "constant": true,
      "inputs": [
        {
          "name": "",
          "type": "uint256"
        }
      ],
      "name": "kitties",
      "outputs": [
        {
          "name": "genes",
          "type": "uint256"
        },
        {
          "name": "name",
          "type": "string"
        }
      ],
      "payable": false,
      "stateMutability": "view",
      "type": "function"
    },
    {
      "constant": false,
      "inputs": [
        {
          "name": "_sireGenes",
          "type": "uint256"
        },
        {
          "name": "_matronGenes",
          "type": "uint256"
        }
      ],
      "name": "mixGenes",
      "outputs": [
        {
          "name": "",
          "type": "uint256"
        }
      ],
      "payable": false,
      "stateMutability": "nonpayable",
      "type": "function"
    },
    {
      "constant": true,
      "inputs": [],
      "name": "owner",
      "outputs": [
        {
          "name": "",
          "type": "address"
        }
      ],
      "payable": false,
      "stateMutability": "view",
      "type": "function"
    },
    {
      "constant": true,
      "inputs": [],
      "name": "symbol",
      "outputs": [
        {
          "name": "",
          "type": "string"
        }
      ],
      "payable": false,
      "stateMutability": "view",
      "type": "function"
    },
    {
      "constant": false,
      "inputs": [
        {
          "name": "_to",
          "type": "address"
        },
        {
          "name": "_approved",
          "type": "bool"
        }
      ],
      "name": "setApprovalForAll",
      "outputs": [],
      "payable": false,
      "stateMutability": "nonpayable",
      "type": "function"
    },
    {
      "constant": false,
      "inputs": [
        {
          "name": "_from",
          "type": "address"
        },
        {
          "name": "_to",
          "type": "address"
        },
        {
          "name": "_tokenId",
          "type": "uint256"
        },
        {
          "name": "_data",
          "type": "bytes"
        }
      ],
      "name": "safeTransferFrom",
      "outputs": [],
      "payable": false,
      "stateMutability": "nonpayable",
      "type": "function"
    },
    {
      "constant": true,
      "inputs": [
        {
          "name": "_tokenId",
          "type": "uint256"
        }
      ],
      "name": "tokenURI",
      "outputs": [
        {
          "name": "",
          "type": "string"
        }
      ],
      "payable": false,
      "stateMutability": "view",
      "type": "function"
    },
    {
      "constant": true,
      "inputs": [
        {
          "name": "_owner",
          "type": "address"
        },
        {
          "name": "_operator",
          "type": "address"
        }
      ],
      "name": "isApprovedForAll",
      "outputs": [
        {
          "name": "",
          "type": "bool"
        }
      ],
      "payable": false,
      "stateMutability": "view",
      "type": "function"
    },
    {
      "constant": false,
      "inputs": [
        {
          "name": "newOwner",
          "type": "address"
        }
      ],
      "name": "transferOwnership",
      "outputs": [],
      "payable": false,
      "stateMutability": "nonpayable",
      "type": "function"
    },
    {
      "inputs": [
        {
          "name": "_name",
          "type": "string"
        },
        {
          "name": "_symbol",
          "type": "string"
        }
      ],
      "payable": false,
      "stateMutability": "nonpayable",
      "type": "constructor"
    },
    {
      "anonymous": false,
      "inputs": [
        {
          "indexed": false,
          "name": "_kittyId",
          "type": "uint256"
        },
        {
          "indexed": false,
          "name": "_owner",
          "type": "address"
        }
      ],
      "name": "_KittyCreated",
      "type": "event"
    },
    {
      "anonymous": false,
      "inputs": [
        {
          "indexed": false,
          "name": "_kittyId",
          "type": "uint256"
        },
        {
          "indexed": false,
          "name": "_owner",
          "type": "address"
        }
      ],
      "name": "_LotCreated",
      "type": "event"
    },
    {
      "anonymous": false,
      "inputs": [
        {
          "indexed": false,
          "name": "_kittyId",
          "type": "uint256"
        },
        {
          "indexed": false,
          "name": "_owner",
          "type": "address"
        }
      ],
      "name": "_LotRemoved",
      "type": "event"
    },
    {
      "anonymous": false,
      "inputs": [
        {
          "indexed": true,
          "name": "previousOwner",
          "type": "address"
        },
        {
          "indexed": true,
          "name": "newOwner",
          "type": "address"
        }
      ],
      "name": "OwnershipTransferred",
      "type": "event"
    },
    {
      "anonymous": false,
      "inputs": [
        {
          "indexed": true,
          "name": "_from",
          "type": "address"
        },
        {
          "indexed": true,
          "name": "_to",
          "type": "address"
        },
        {
          "indexed": false,
          "name": "_tokenId",
          "type": "uint256"
        }
      ],
      "name": "Transfer",
      "type": "event"
    },
    {
      "anonymous": false,
      "inputs": [
        {
          "indexed": true,
          "name": "_owner",
          "type": "address"
        },
        {
          "indexed": true,
          "name": "_approved",
          "type": "address"
        },
        {
          "indexed": false,
          "name": "_tokenId",
          "type": "uint256"
        }
      ],
      "name": "Approval",
      "type": "event"
    },
    {
      "anonymous": false,
      "inputs": [
        {
          "indexed": true,
          "name": "_owner",
          "type": "address"
        },
        {
          "indexed": true,
          "name": "_operator",
          "type": "address"
        },
        {
          "indexed": false,
          "name": "_approved",
          "type": "bool"
        }
      ],
      "name": "ApprovalForAll",
      "type": "event"
    },
    {
      "constant": false,
      "inputs": [
        {
          "name": "_kittyId",
          "type": "uint256"
        },
        {
          "name": "_price",
          "type": "uint256"
        }
      ],
      "name": "createLot",
      "outputs": [],
      "payable": false,
      "stateMutability": "nonpayable",
      "type": "function"
    },
    {
      "constant": false,
      "inputs": [
        {
          "name": "_kittyId",
          "type": "uint256"
        }
      ],
      "name": "removeLot",
      "outputs": [],
      "payable": false,
      "stateMutability": "nonpayable",
      "type": "function"
    },
    {
      "constant": false,
      "inputs": [
        {
          "name": "_kittyId",
          "type": "uint256"
        }
      ],
      "name": "bid",
      "outputs": [],
      "payable": true,
      "stateMutability": "payable",
      "type": "function"
    },
    {
      "constant": false,
      "inputs": [
        {
          "name": "_sireId",
          "type": "uint256"
        },
        {
          "name": "_matronId",
          "type": "uint256"
        }
      ],
      "name": "breed",
      "outputs": [],
      "payable": false,
      "stateMutability": "nonpayable",
      "type": "function"
    },
    {
      "constant": false,
      "inputs": [
        {
          "name": "_genes",
          "type": "uint256"
        },
        {
          "name": "_name",
          "type": "string"
        }
      ],
      "name": "mint",
      "outputs": [],
      "payable": false,
      "stateMutability": "nonpayable",
      "type": "function"
    }
  ],
  "bytecode": "0x60606040526009600b60146101000a81548160ff021916908360ff16021790555034156200002c57600080fd5b60405162002e0738038062002e0783398101604052808051820191906020018051820191905050818181600490805190602001906200006d929190620000d2565b50806005908051906020019062000086929190620000d2565b50505033600b60006101000a81548173ffffffffffffffffffffffffffffffffffffffff021916908373ffffffffffffffffffffffffffffffffffffffff160217905550505062000181565b828054600181600116156101000203166002900490600052602060002090601f016020900481019282601f106200011557805160ff191683800117855562000146565b8280016001018555821562000146579182015b828111156200014557825182559160200191906001019062000128565b5b50905062000155919062000159565b5090565b6200017e91905b808211156200017a57600081600090555060010162000160565b5090565b90565b612c7680620001916000396000f30060606040526004361061015f576000357c0100000000000000000000000000000000000000000000000000000000900463ffffffff16806306fdde0314610164578063081812fc146101f2578063095ea7b31461025557806318160ddd146102975780631a162fa7146102c05780631c78d9e1146102ef57806323b872dd146103595780632f745c59146103ba57806342842e0e14610410578063454a2ab3146104715780634f558e79146104895780634f6ccce7146104c45780635a4cbe51146104fb57806361d21e971461051e5780636352211e1461054a57806370a08231146105ad57806377097fc8146105fa5780638cc51eda146106605780638d8b1b88146107035780638da5cb5b1461074357806395d89b4114610798578063a22cb46514610826578063b88d4fde1461086a578063c87b56dd1461090e578063d9ecad7b146109aa578063e985e9c5146109d6578063f2fde38b14610a46575b600080fd5b341561016f57600080fd5b610177610a7f565b6040518080602001828103825283818151815260200191508051906020019080838360005b838110156101b757808201518184015260208101905061019c565b50505050905090810190601f1680156101e45780820380516001836020036101000a031916815260200191505b509250505060405180910390f35b34156101fd57600080fd5b6102136004808035906020019091905050610b27565b604051808273ffffffffffffffffffffffffffffffffffffffff1673ffffffffffffffffffffffffffffffffffffffff16815260200191505060405180910390f35b341561026057600080fd5b610295600480803573ffffffffffffffffffffffffffffffffffffffff16906020019091908035906020019091905050610b64565b005b34156102a257600080fd5b6102aa610d2a565b6040518082815260200191505060405180910390f35b34156102cb57600080fd5b6102d3610d37565b604051808260ff1660ff16815260200191505060405180910390f35b34156102fa57600080fd5b6103106004808035906020019091905050610d4a565b604051808373ffffffffffffffffffffffffffffffffffffffff1673ffffffffffffffffffffffffffffffffffffffff1681526020018281526020019250505060405180910390f35b341561036457600080fd5b6103b8600480803573ffffffffffffffffffffffffffffffffffffffff1690602001909190803573ffffffffffffffffffffffffffffffffffffffff16906020019091908035906020019091905050610d8e565b005b34156103c557600080fd5b6103fa600480803573ffffffffffffffffffffffffffffffffffffffff16906020019091908035906020019091905050610ea5565b6040518082815260200191505060405180910390f35b341561041b57600080fd5b61046f600480803573ffffffffffffffffffffffffffffffffffffffff1690602001909190803573ffffffffffffffffffffffffffffffffffffffff16906020019091908035906020019091905050610f1d565b005b6104876004808035906020019091905050610f55565b005b341561049457600080fd5b6104aa60048080359060200190919050506110d7565b604051808215151515815260200191505060405180910390f35b34156104cf57600080fd5b6104e56004808035906020019091905050611148565b6040518082815260200191505060405180910390f35b341561050657600080fd5b61051c6004808035906020019091905050611181565b005b341561052957600080fd5b61054860048080359060200190919080359060200190919050506112af565b005b341561055557600080fd5b61056b60048080359060200190919050506113c7565b604051808273ffffffffffffffffffffffffffffffffffffffff1673ffffffffffffffffffffffffffffffffffffffff16815260200191505060405180910390f35b34156105b857600080fd5b6105e4600480803573ffffffffffffffffffffffffffffffffffffffff16906020019091905050611444565b6040518082815260200191505060405180910390f35b341561060557600080fd5b61065e600480803590602001909190803590602001908201803590602001908080601f016020809104026020016040519081016040528093929190818152602001838380828437820191505050505050919050506114c8565b005b341561066b57600080fd5b6106816004808035906020019091905050611532565b6040518083815260200180602001828103825283818151815260200191508051906020019080838360005b838110156106c75780820151818401526020810190506106ac565b50505050905090810190601f1680156106f45780820380516001836020036101000a031916815260200191505b50935050505060405180910390f35b341561070e57600080fd5b61072d60048080359060200190919080359060200190919050506115fd565b6040518082815260200191505060405180910390f35b341561074e57600080fd5b6107566116db565b604051808273ffffffffffffffffffffffffffffffffffffffff1673ffffffffffffffffffffffffffffffffffffffff16815260200191505060405180910390f35b34156107a357600080fd5b6107ab611701565b6040518080602001828103825283818151815260200191508051906020019080838360005b838110156107eb5780820151818401526020810190506107d0565b50505050905090810190601f1680156108185780820380516001836020036101000a031916815260200191505b509250505060405180910390f35b341561083157600080fd5b610868600480803573ffffffffffffffffffffffffffffffffffffffff1690602001909190803515159060200190919050506117a9565b005b341561087557600080fd5b61090c600480803573ffffffffffffffffffffffffffffffffffffffff1690602001909190803573ffffffffffffffffffffffffffffffffffffffff1690602001909190803590602001909190803590602001908201803590602001908080601f016020809104026020016040519081016040528093929190818152602001838380828437820191505050505050919050506118e5565b005b341561091957600080fd5b61092f6004808035906020019091905050611924565b6040518080602001828103825283818151815260200191508051906020019080838360005b8381101561096f578082015181840152602081019050610954565b50505050905090810190601f16801561099c5780820380516001836020036101000a031916815260200191505b509250505060405180910390f35b34156109b557600080fd5b6109d460048080359060200190919080359060200190919050506119f3565b005b34156109e157600080fd5b610a2c600480803573ffffffffffffffffffffffffffffffffffffffff1690602001909190803573ffffffffffffffffffffffffffffffffffffffff16906020019091905050611c0b565b604051808215151515815260200191505060405180910390f35b3415610a5157600080fd5b610a7d600480803573ffffffffffffffffffffffffffffffffffffffff16906020019091905050611c9f565b005b610a87612a24565b60048054600181600116156101000203166002900480601f016020809104026020016040519081016040528092919081815260200182805460018160011615610100020316600290048015610b1d5780601f10610af257610100808354040283529160200191610b1d565b820191906000526020600020905b815481529060010190602001808311610b0057829003601f168201915b5050505050905090565b60006001600083815260200190815260200160002060009054906101000a900473ffffffffffffffffffffffffffffffffffffffff169050919050565b6000610b6f826113c7565b90508073ffffffffffffffffffffffffffffffffffffffff168373ffffffffffffffffffffffffffffffffffffffff1614151515610bac57600080fd5b8073ffffffffffffffffffffffffffffffffffffffff163373ffffffffffffffffffffffffffffffffffffffff161480610bec5750610beb8133611c0b565b5b1515610bf757600080fd5b600073ffffffffffffffffffffffffffffffffffffffff16610c1883610b27565b73ffffffffffffffffffffffffffffffffffffffff16141580610c685750600073ffffffffffffffffffffffffffffffffffffffff168373ffffffffffffffffffffffffffffffffffffffff1614155b15610d2557826001600084815260200190815260200160002060006101000a81548173ffffffffffffffffffffffffffffffffffffffff021916908373ffffffffffffffffffffffffffffffffffffffff1602179055508273ffffffffffffffffffffffffffffffffffffffff168173ffffffffffffffffffffffffffffffffffffffff167f8c5be1e5ebec7d5bd14f71427d1e84f3dd0314c0f7b2291e5b200ac8c7c3b925846040518082815260200191505060405180910390a35b505050565b6000600880549050905090565b600b60149054906101000a900460ff1681565b600d6020528060005260406000206000915090508060000160009054906101000a900473ffffffffffffffffffffffffffffffffffffffff16908060010154905082565b80610d993382611df7565b1515610da457600080fd5b600073ffffffffffffffffffffffffffffffffffffffff168473ffffffffffffffffffffffffffffffffffffffff1614151515610de057600080fd5b600073ffffffffffffffffffffffffffffffffffffffff168373ffffffffffffffffffffffffffffffffffffffff1614151515610e1c57600080fd5b610e268483611e8c565b610e308483611ff5565b610e3a8383612210565b8273ffffffffffffffffffffffffffffffffffffffff168473ffffffffffffffffffffffffffffffffffffffff167fddf252ad1be2c89b69c2b068fc378daa952ba7f163c4a11628f55a4df523b3ef846040518082815260200191505060405180910390a350505050565b6000610eb083611444565b82101515610ebd57600080fd5b600660008473ffffffffffffffffffffffffffffffffffffffff1673ffffffffffffffffffffffffffffffffffffffff16815260200190815260200160002082815481101515610f0957fe5b906000526020600020900154905092915050565b80610f283382611df7565b1515610f3357600080fd5b610f4f84848460206040519081016040528060008152506118e5565b50505050565b610f5d612a38565b600080600d60008581526020019081526020016000206040805190810160405290816000820160009054906101000a900473ffffffffffffffffffffffffffffffffffffffff1673ffffffffffffffffffffffffffffffffffffffff1673ffffffffffffffffffffffffffffffffffffffff1681526020016001820154815250509250600073ffffffffffffffffffffffffffffffffffffffff16836000015173ffffffffffffffffffffffffffffffffffffffff161415151561102057600080fd5b8260200151341015151561103357600080fd5b8260000151915082602001519050600d6000858152602001908152602001600020600080820160006101000a81549073ffffffffffffffffffffffffffffffffffffffff0219169055600182016000905550508173ffffffffffffffffffffffffffffffffffffffff166108fc829081150290604051600060405180830381858888f1935050505015156110c657600080fd5b6110d1303386610d8e565b50505050565b60008060008084815260200190815260200160002060009054906101000a900473ffffffffffffffffffffffffffffffffffffffff169050600073ffffffffffffffffffffffffffffffffffffffff168173ffffffffffffffffffffffffffffffffffffffff161415915050919050565b6000611152610d2a565b8210151561115f57600080fd5b60088281548110151561116e57fe5b9060005260206000209001549050919050565b3373ffffffffffffffffffffffffffffffffffffffff16600d600083815260200190815260200160002060000160009054906101000a900473ffffffffffffffffffffffffffffffffffffffff1673ffffffffffffffffffffffffffffffffffffffff161415156111f157600080fd5b600d6000828152602001908152602001600020600080820160006101000a81549073ffffffffffffffffffffffffffffffffffffffff021916905560018201600090555050611241303383610d8e565b7f44c80b8a7c5e49cd439921a856b217f3a7ca8f20e8821506cb1ef8b1917e94818133604051808381526020018273ffffffffffffffffffffffffffffffffffffffff1673ffffffffffffffffffffffffffffffffffffffff1681526020019250505060405180910390a150565b6112b7612a38565b6112c2333085610d8e565b60408051908101604052803373ffffffffffffffffffffffffffffffffffffffff16815260200183815250905080600d600085815260200190815260200160002060008201518160000160006101000a81548173ffffffffffffffffffffffffffffffffffffffff021916908373ffffffffffffffffffffffffffffffffffffffff160217905550602082015181600101559050507f484978ce145233ee202c847ed26f46cddb3ce70ff4eb53ad8865efc1de8bbb6b8333604051808381526020018273ffffffffffffffffffffffffffffffffffffffff1673ffffffffffffffffffffffffffffffffffffffff1681526020019250505060405180910390a1505050565b60008060008084815260200190815260200160002060009054906101000a900473ffffffffffffffffffffffffffffffffffffffff169050600073ffffffffffffffffffffffffffffffffffffffff168173ffffffffffffffffffffffffffffffffffffffff161415151561143b57600080fd5b80915050919050565b60008073ffffffffffffffffffffffffffffffffffffffff168273ffffffffffffffffffffffffffffffffffffffff161415151561148157600080fd5b600260008373ffffffffffffffffffffffffffffffffffffffff1673ffffffffffffffffffffffffffffffffffffffff168152602001908152602001600020549050919050565b600b60009054906101000a900473ffffffffffffffffffffffffffffffffffffffff1673ffffffffffffffffffffffffffffffffffffffff163373ffffffffffffffffffffffffffffffffffffffff1614151561152457600080fd5b61152e82826122e4565b5050565b600c8181548110151561154157fe5b9060005260206000209060020201600091509050806000015490806001018054600181600116156101000203166002900480601f0160208091040260200160405190810160405280929190818152602001828054600181600116156101000203166002900480156115f35780601f106115c8576101008083540402835291602001916115f3565b820191906000526020600020905b8154815290600101906020018083116115d657829003601f168201915b5050505050905082565b600080600080600080600380600b60149054906101000a900460ff160360ff1660014303406001900481151561162f57fe5b060194508692506001430340604051808260001916600019168152602001915050604051809103902091505b848460ff1610156116cd57600b60149054906101000a900460ff1660ff16826001900481151561168757fe5b06905061169e836116988a846123d8565b83612429565b92508160405180826000191660001916815260200191505060405180910390209150838060010194505061165b565b829550505050505092915050565b600b60009054906101000a900473ffffffffffffffffffffffffffffffffffffffff1681565b611709612a24565b60058054600181600116156101000203166002900480601f01602080910402602001604051908101604052809291908181526020018280546001816001161561010002031660029004801561179f5780601f106117745761010080835404028352916020019161179f565b820191906000526020600020905b81548152906001019060200180831161178257829003601f168201915b5050505050905090565b3373ffffffffffffffffffffffffffffffffffffffff168273ffffffffffffffffffffffffffffffffffffffff16141515156117e457600080fd5b80600360003373ffffffffffffffffffffffffffffffffffffffff1673ffffffffffffffffffffffffffffffffffffffff16815260200190815260200160002060008473ffffffffffffffffffffffffffffffffffffffff1673ffffffffffffffffffffffffffffffffffffffff16815260200190815260200160002060006101000a81548160ff0219169083151502179055508173ffffffffffffffffffffffffffffffffffffffff163373ffffffffffffffffffffffffffffffffffffffff167f17307eab39ab6107e8899845ad3d59bd9653f200f220920489ca2b5937696c3183604051808215151515815260200191505060405180910390a35050565b816118f03382611df7565b15156118fb57600080fd5b611906858585610d8e565b61191285858585612487565b151561191d57600080fd5b5050505050565b61192c612a24565b611935826110d7565b151561194057600080fd5b600a60008381526020019081526020016000208054600181600116156101000203166002900480601f0160208091040260200160405190810160405280929190818152602001828054600181600116156101000203166002900480156119e75780601f106119bc576101008083540402835291602001916119e7565b820191906000526020600020905b8154815290600101906020018083116119ca57829003601f168201915b50505050509050919050565b6119fb612a68565b611a03612a68565b6000600c85815481101515611a1457fe5b906000526020600020906002020160408051908101604052908160008201548152602001600182018054600181600116156101000203166002900480601f016020809104026020016040519081016040528092919081815260200182805460018160011615610100020316600290048015611ad05780601f10611aa557610100808354040283529160200191611ad0565b820191906000526020600020905b815481529060010190602001808311611ab357829003601f168201915b5050505050815250509250600c84815481101515611aea57fe5b906000526020600020906002020160408051908101604052908160008201548152602001600182018054600181600116156101000203166002900480601f016020809104026020016040519081016040528092919081815260200182805460018160011615610100020316600290048015611ba65780601f10611b7b57610100808354040283529160200191611ba6565b820191906000526020600020905b815481529060010190602001808311611b8957829003601f168201915b5050505050815250509150611bc3836000015183600001516115fd565b9050611c04816040805190810160405280600a81526020017f4e6577204b697474656e000000000000000000000000000000000000000000008152506122e4565b5050505050565b6000600360008473ffffffffffffffffffffffffffffffffffffffff1673ffffffffffffffffffffffffffffffffffffffff16815260200190815260200160002060008373ffffffffffffffffffffffffffffffffffffffff1673ffffffffffffffffffffffffffffffffffffffff16815260200190815260200160002060009054906101000a900460ff16905092915050565b600b60009054906101000a900473ffffffffffffffffffffffffffffffffffffffff1673ffffffffffffffffffffffffffffffffffffffff163373ffffffffffffffffffffffffffffffffffffffff16141515611cfb57600080fd5b600073ffffffffffffffffffffffffffffffffffffffff168173ffffffffffffffffffffffffffffffffffffffff1614151515611d3757600080fd5b8073ffffffffffffffffffffffffffffffffffffffff16600b60009054906101000a900473ffffffffffffffffffffffffffffffffffffffff1673ffffffffffffffffffffffffffffffffffffffff167f8be0079c531659141344cd1fd0a4f28419497f9722a3daafe3b4186f6b6457e060405160405180910390a380600b60006101000a81548173ffffffffffffffffffffffffffffffffffffffff021916908373ffffffffffffffffffffffffffffffffffffffff16021790555050565b600080611e03836113c7565b90508073ffffffffffffffffffffffffffffffffffffffff168473ffffffffffffffffffffffffffffffffffffffff161480611e7257508373ffffffffffffffffffffffffffffffffffffffff16611e5a84610b27565b73ffffffffffffffffffffffffffffffffffffffff16145b80611e835750611e828185611c0b565b5b91505092915050565b8173ffffffffffffffffffffffffffffffffffffffff16611eac826113c7565b73ffffffffffffffffffffffffffffffffffffffff16141515611ece57600080fd5b600073ffffffffffffffffffffffffffffffffffffffff166001600083815260200190815260200160002060009054906101000a900473ffffffffffffffffffffffffffffffffffffffff1673ffffffffffffffffffffffffffffffffffffffff16141515611ff15760006001600083815260200190815260200160002060006101000a81548173ffffffffffffffffffffffffffffffffffffffff021916908373ffffffffffffffffffffffffffffffffffffffff160217905550600073ffffffffffffffffffffffffffffffffffffffff168273ffffffffffffffffffffffffffffffffffffffff167f8c5be1e5ebec7d5bd14f71427d1e84f3dd0314c0f7b2291e5b200ac8c7c3b925836040518082815260200191505060405180910390a35b5050565b60008060006120048585612650565b600760008581526020019081526020016000205492506120706001600660008873ffffffffffffffffffffffffffffffffffffffff1673ffffffffffffffffffffffffffffffffffffffff1681526020019081526020016000208054905061277e90919063ffffffff16565b9150600660008673ffffffffffffffffffffffffffffffffffffffff1673ffffffffffffffffffffffffffffffffffffffff168152602001908152602001600020828154811015156120be57fe5b906000526020600020900154905080600660008773ffffffffffffffffffffffffffffffffffffffff1673ffffffffffffffffffffffffffffffffffffffff1681526020019081526020016000208481548110151561211957fe5b9060005260206000209001819055506000600660008773ffffffffffffffffffffffffffffffffffffffff1673ffffffffffffffffffffffffffffffffffffffff1681526020019081526020016000208381548110151561217657fe5b906000526020600020900181905550600660008673ffffffffffffffffffffffffffffffffffffffff1673ffffffffffffffffffffffffffffffffffffffff1681526020019081526020016000208054809190600190036121d79190612a88565b50600060076000868152602001908152602001600020819055508260076000838152602001908152602001600020819055505050505050565b600061221c8383612797565b600660008473ffffffffffffffffffffffffffffffffffffffff1673ffffffffffffffffffffffffffffffffffffffff168152602001908152602001600020805490509050600660008473ffffffffffffffffffffffffffffffffffffffff1673ffffffffffffffffffffffffffffffffffffffff16815260200190815260200160002080548060010182816122b29190612ab4565b916000526020600020900160008490919091505550806007600084815260200190815260200160002081905550505050565b6122ec612a68565b600060408051908101604052808581526020018481525091506001600c805480600101828161231b9190612ae0565b91600052602060002090600202016000859091909150600082015181600001556020820151816001019080519060200190612357929190612b12565b50505003905061236733826128ef565b7f1ea9923687686e3ca8f0a0440043b4859a571175fcdf49d355f3083c1278dea58133604051808381526020018273ffffffffffffffffffffffffffffffffffffffff1673ffffffffffffffffffffffffffffffffffffffff1681526020019250505060405180910390a150505050565b600080600083600b60149054906101000a900460ff1660ff1603915060018203600a0a82600a0a8681151561240957fe5b0681151561241357fe5b04905060018203600a0a81029250505092915050565b600080600080600085600b60149054906101000a900460ff1660ff1603935083600a0a8881151561245657fe5b04925060018403600a0a8881151561246a57fe5b069150818785600a0a850201019050809450505050509392505050565b6000806124a98573ffffffffffffffffffffffffffffffffffffffff16612943565b15156124b85760019150612647565b8473ffffffffffffffffffffffffffffffffffffffff1663f0b9e5ba8786866040518463ffffffff167c0100000000000000000000000000000000000000000000000000000000028152600401808473ffffffffffffffffffffffffffffffffffffffff1673ffffffffffffffffffffffffffffffffffffffff16815260200183815260200180602001828103825283818151815260200191508051906020019080838360005b8381101561257a57808201518184015260208101905061255f565b50505050905090810190601f1680156125a75780820380516001836020036101000a031916815260200191505b50945050505050602060405180830381600087803b15156125c757600080fd5b5af115156125d457600080fd5b50505060405180519050905063f0b9e5ba7c0100000000000000000000000000000000000000000000000000000000027bffffffffffffffffffffffffffffffffffffffffffffffffffffffff1916817bffffffffffffffffffffffffffffffffffffffffffffffffffffffff19161491505b50949350505050565b8173ffffffffffffffffffffffffffffffffffffffff16612670826113c7565b73ffffffffffffffffffffffffffffffffffffffff1614151561269257600080fd5b6126e56001600260008573ffffffffffffffffffffffffffffffffffffffff1673ffffffffffffffffffffffffffffffffffffffff1681526020019081526020016000205461277e90919063ffffffff16565b600260008473ffffffffffffffffffffffffffffffffffffffff1673ffffffffffffffffffffffffffffffffffffffff16815260200190815260200160002081905550600080600083815260200190815260200160002060006101000a81548173ffffffffffffffffffffffffffffffffffffffff021916908373ffffffffffffffffffffffffffffffffffffffff1602179055505050565b600082821115151561278c57fe5b818303905092915050565b600073ffffffffffffffffffffffffffffffffffffffff1660008083815260200190815260200160002060009054906101000a900473ffffffffffffffffffffffffffffffffffffffff1673ffffffffffffffffffffffffffffffffffffffff1614151561280457600080fd5b8160008083815260200190815260200160002060006101000a81548173ffffffffffffffffffffffffffffffffffffffff021916908373ffffffffffffffffffffffffffffffffffffffff1602179055506128a86001600260008573ffffffffffffffffffffffffffffffffffffffff1673ffffffffffffffffffffffffffffffffffffffff1681526020019081526020016000205461295690919063ffffffff16565b600260008473ffffffffffffffffffffffffffffffffffffffff1673ffffffffffffffffffffffffffffffffffffffff168152602001908152602001600020819055505050565b6128f98282612974565b60088054905060096000838152602001908152602001600020819055506008805480600101828161292a9190612ab4565b9160005260206000209001600083909190915055505050565b600080823b905060008111915050919050565b600080828401905083811015151561296a57fe5b8091505092915050565b600073ffffffffffffffffffffffffffffffffffffffff168273ffffffffffffffffffffffffffffffffffffffff16141515156129b057600080fd5b6129ba8282612210565b8173ffffffffffffffffffffffffffffffffffffffff16600073ffffffffffffffffffffffffffffffffffffffff167fddf252ad1be2c89b69c2b068fc378daa952ba7f163c4a11628f55a4df523b3ef836040518082815260200191505060405180910390a35050565b602060405190810160405280600081525090565b6040805190810160405280600073ffffffffffffffffffffffffffffffffffffffff168152602001600081525090565b604080519081016040528060008152602001612a82612b92565b81525090565b815481835581811511612aaf57818360005260206000209182019101612aae9190612ba6565b5b505050565b815481835581811511612adb57818360005260206000209182019101612ada9190612ba6565b5b505050565b815481835581811511612b0d57600202816002028360005260206000209182019101612b0c9190612bcb565b5b505050565b828054600181600116156101000203166002900490600052602060002090601f016020900481019282601f10612b5357805160ff1916838001178555612b81565b82800160010185558215612b81579182015b82811115612b80578251825591602001919060010190612b65565b5b509050612b8e9190612ba6565b5090565b602060405190810160405280600081525090565b612bc891905b80821115612bc4576000816000905550600101612bac565b5090565b90565b612bff91905b80821115612bfb57600080820160009055600182016000612bf29190612c02565b50600201612bd1565b5090565b90565b50805460018160011615610100020316600290046000825580601f10612c285750612c47565b601f016020900490600052602060002090810190612c469190612ba6565b5b505600a165627a7a723058209cc0e5ed78122b7d8d96c58e649b73ce0ff0b2d35bf39070bd327896b74348840029",
  "source": "pragma solidity ^0.4.18;\n\nimport \"zeppelin-solidity/contracts/token/ERC721/ERC721Token.sol\";\nimport \"zeppelin-solidity/contracts/ownership/Ownable.sol\";\nimport \"./GeneticAlgorithm.sol\";\n\ncontract CryptoKitties is ERC721Token, Ownable, GeneticAlgorithm {\n  struct Kitty {\n    uint genes;\n    string name;\n  }\n\n  struct Lot {\n    address owner;\n    uint price;\n  }\n\n  Kitty[] public kitties;\n\n  mapping (uint => Lot) public kittyIdToLot;\n\n  event _KittyCreated(uint _kittyId, address _owner);\n  event _LotCreated(uint _kittyId, address _owner);\n  event _LotRemoved(uint _kittyId, address _owner);\n\n  function CryptoKitties (string _name, string _symbol) ERC721Token(_name, _symbol) public {}\n\n  /**\n   * Creates a lot associated by _kittyId\n   */\n  function createLot(uint _kittyId, uint _price) public {\n    transferFrom(msg.sender, this, _kittyId);  // kittyId == tokenId\n\n    Lot memory _lot = Lot({\n      owner: msg.sender,\n      price: _price\n    });\n\n    kittyIdToLot[_kittyId] = _lot;\n\n    _LotCreated(_kittyId, msg.sender);\n  }\n\n  function removeLot(uint _kittyId) public {\n    require(kittyIdToLot[_kittyId].owner == msg.sender);\n\n    delete kittyIdToLot[_kittyId];\n\n    transferFrom(this, msg.sender, _kittyId);\n\n    _LotRemoved(_kittyId, msg.sender);\n  }\n\n  /**\n   * Function used to buy a kitty.\n   */\n  function bid(uint _kittyId) public payable {\n    Lot memory _lot = kittyIdToLot[_kittyId];\n\n    require(_lot.owner != address(0));    // Checking if lot exists\n    require(msg.value >= _lot.price);     // Checking if price is higher than bid\n\n    address owner = _lot.owner;\n    uint price = _lot.price;\n\n    delete kittyIdToLot[_kittyId];\n\n    owner.transfer(price);\n    transferFrom(this, msg.sender, _kittyId);\n  }\n\n  function breed(uint _sireId, uint _matronId) public {\n    Kitty memory _sire = kitties[_sireId];\n    Kitty memory _matron = kitties[_matronId];\n\n    uint _genes = mixGenes(_sire.genes, _matron.genes);\n\n    _createKitty(_genes, \"New Kitten\");\n  }\n\n  /**\n   * Creating a new Kitti (Token) with specified params.\n   * Only owner of the contract is allowed.\n   */\n  function mint(uint _genes, string _name) public onlyOwner {\n    _createKitty(_genes, _name);\n  }\n\n  function _createKitty(uint _genes, string _name) internal {\n    Kitty memory _kitty = Kitty({genes: _genes, name: _name});\n\n    uint _kittyId = kitties.push(_kitty) - 1;\n\n    _mint(msg.sender, _kittyId);\n    _KittyCreated(_kittyId, msg.sender);\n  }\n}",
  "sourcePath": "/Users/someart/Projects/ethereum/cc/contracts/CryptoKitties.sol",
  "compiler": {
    "name": "solc",
    "version": "0.4.21+commit.dfe3193c.Emscripten.clang"
  },
  "schemaVersion": "2.0.0",
  "updatedAt": "2018-04-15T16:52:32.769Z"
}