{
  "contractName": "GeneticAlgorithm",
  "abi": [
    {
      "constant": true,
      "inputs": [],
      "name": "geneLength",
      "outputs": [
        {
          "name": "",
          "type": "uint8"
        }
      ],
      "payable": false,
      "stateMutability": "view",
      "type": "function"
    },
    {
      "constant": true,
      "inputs": [],
      "name": "genesCount",
      "outputs": [
        {
          "name": "",
          "type": "uint8"
        }
      ],
      "payable": false,
      "stateMutability": "view",
      "type": "function"
    },
    {
      "constant": false,
      "inputs": [
        {
          "name": "_sireGenes",
          "type": "string"
        },
        {
          "name": "_matronGenes",
          "type": "string"
        }
      ],
      "name": "mixGenes",
      "outputs": [
        {
          "name": "",
          "type": "string"
        }
      ],
      "payable": false,
      "stateMutability": "nonpayable",
      "type": "function"
    }
  ],
  "bytecode": "0x606060405260096000806101000a81548160ff021916908360ff1602179055506002600060016101000a81548160ff021916908360ff160217905550341561004657600080fd5b610520806100556000396000f300606060405260043610610057576000357c0100000000000000000000000000000000000000000000000000000000900463ffffffff168063078c0ea41461005c5780631a162fa71461008b578063d38f9bf1146100ba575b600080fd5b341561006757600080fd5b61006f6101d3565b604051808260ff1660ff16815260200191505060405180910390f35b341561009657600080fd5b61009e6101e6565b604051808260ff1660ff16815260200191505060405180910390f35b34156100c557600080fd5b610158600480803590602001908201803590602001908080601f0160208091040260200160405190810160405280939291908181526020018383808284378201915050505050509190803590602001908201803590602001908080601f016020809104026020016040519081016040528093929190818152602001838380828437820191505050505050919050506101f8565b6040518080602001828103825283818151815260200191508051906020019080838360005b8381101561019857808201518184015260208101905061017d565b50505050905090810190601f1680156101c55780820380516001836020036101000a031916815260200191505b509250505060405180910390f35b600060019054906101000a900460ff1681565b6000809054906101000a900460ff1681565b6102006104cc565b60008061020b6104cc565b600080600360016000809054906101000a900460ff160160ff1660014303406001900481151561023757fe5b060194508692506001430340604051808260001916600019168152602001915050604051809103902091505b848460ff1610156102d4576000809054906101000a900460ff1660ff16826001900481151561028e57fe5b0690506102a58361029f8a846102e2565b836103f0565b925081604051808260001916600019168152602001915050604051809103902091508380600101945050610263565b829550505050505092915050565b6102ea6104e0565b60006040805190810160405280600281526020017f30300000000000000000000000000000000000000000000000000000000000008152509150600090505b600060019054906101000a900460ff1660ff168110156103e9578381840181518110151561035357fe5b9060200101517f010000000000000000000000000000000000000000000000000000000000000090047f01000000000000000000000000000000000000000000000000000000000000000282828151811015156103ac57fe5b9060200101907effffffffffffffffffffffffffffffffffffffffffffffffffffffffffffff1916908160001a9053508080600101915050610329565b5092915050565b6103f86104cc565b60008090505b600060019054906101000a900460ff1660ff168110156104c157838181518110151561042657fe5b9060200101517f010000000000000000000000000000000000000000000000000000000000000090047f0100000000000000000000000000000000000000000000000000000000000000028582600286020181518110151561048457fe5b9060200101907effffffffffffffffffffffffffffffffffffffffffffffffffffffffffffff1916908160001a90535080806001019150506103fe565b849150509392505050565b602060405190810160405280600081525090565b6020604051908101604052806000815250905600a165627a7a72305820c1177f3198ca3c359831c198c9d67de216f419d283e7ffbe236fbcaa714d83260029",
  "source": "pragma solidity ^0.4.18;\n\ncontract GeneticAlgorithm {\n    uint8 public genesCount = 9;\n    uint8 public geneLength = 2;\n\n    function mixGenes(string _sireGenes, string _matronGenes) public returns (string) {\n        uint _genesToMixCount = uint(block.blockhash(block.number - 1)) % (genesCount + 1) + 3;\n        uint8 _mixedGenesCount;\n        string memory _kittenGenes = _matronGenes;\n\n        bytes32 _randomHash = keccak256(block.blockhash(block.number - 1));\n\n        uint _randomGeneIndex;\n        while (_mixedGenesCount < _genesToMixCount) {\n            _randomGeneIndex = uint(_randomHash) % genesCount;\n\n            _kittenGenes = _setGene(_kittenGenes, _getGene(_sireGenes, _randomGeneIndex), _randomGeneIndex);\n\n            _randomHash = keccak256(_randomHash);\n            _mixedGenesCount++;\n        }\n\n        return _kittenGenes;\n    }\n\n    function _getGene(string _genes, uint _geneIndex) internal returns (bytes _gene) {\n        _gene = \"00\";\n        for (uint i = 0; i < geneLength; i++) {\n            _gene[i] = bytes(_genes)[_geneIndex + i];\n        }\n\n    }\n\n\n    function _setGene(string _genes, bytes _gene, uint _geneIndex) internal returns (string) {\n        for (uint i = 0; i < geneLength; i++) {\n            bytes(_genes)[_geneIndex * 2 + i] = _gene[i];\n        }\n\n        return _genes;\n    }\n}",
  "sourcePath": "/Users/alexey.hodkov/dev/ethereum-crypto-kitties/contracts/GeneticAlgorithm.sol",
  "compiler": {
    "name": "solc",
    "version": "0.4.21+commit.dfe3193c.Emscripten.clang"
  },
  "schemaVersion": "2.0.0",
  "updatedAt": "2018-04-15T12:01:06.038Z"
}